{
  "contractName": "SupplyChain",
  "abi": [
    {
      "constant": false,
      "inputs": [
        {
          "name": "account",
          "type": "address"
        }
      ],
      "name": "addConsumer",
      "outputs": [],
      "payable": false,
      "stateMutability": "nonpayable",
      "type": "function"
    },
    {
      "constant": true,
      "inputs": [
        {
          "name": "account",
          "type": "address"
        }
      ],
      "name": "isRetailer",
      "outputs": [
        {
          "name": "",
          "type": "bool"
        }
      ],
      "payable": false,
      "stateMutability": "view",
      "type": "function"
    },
    {
      "constant": false,
      "inputs": [],
      "name": "renounceConsumer",
      "outputs": [],
      "payable": false,
      "stateMutability": "nonpayable",
      "type": "function"
    },
    {
      "constant": false,
      "inputs": [],
      "name": "renounceDistributor",
      "outputs": [],
      "payable": false,
      "stateMutability": "nonpayable",
      "type": "function"
    },
    {
      "constant": false,
      "inputs": [],
      "name": "renounceOwnership",
      "outputs": [],
      "payable": false,
      "stateMutability": "nonpayable",
      "type": "function"
    },
    {
      "constant": false,
      "inputs": [
        {
          "name": "account",
          "type": "address"
        }
      ],
      "name": "addDistributor",
      "outputs": [],
      "payable": false,
      "stateMutability": "nonpayable",
      "type": "function"
    },
    {
      "constant": false,
      "inputs": [
        {
          "name": "account",
          "type": "address"
        }
      ],
      "name": "addFarmer",
      "outputs": [],
      "payable": false,
      "stateMutability": "nonpayable",
      "type": "function"
    },
    {
      "constant": false,
      "inputs": [],
      "name": "renounceFarmer",
      "outputs": [],
      "payable": false,
      "stateMutability": "nonpayable",
      "type": "function"
    },
    {
      "constant": true,
      "inputs": [
        {
          "name": "account",
          "type": "address"
        }
      ],
      "name": "isConsumer",
      "outputs": [
        {
          "name": "",
          "type": "bool"
        }
      ],
      "payable": false,
      "stateMutability": "view",
      "type": "function"
    },
    {
      "constant": true,
      "inputs": [],
      "name": "owner",
      "outputs": [
        {
          "name": "",
          "type": "address"
        }
      ],
      "payable": false,
      "stateMutability": "view",
      "type": "function"
    },
    {
      "constant": false,
      "inputs": [
        {
          "name": "account",
          "type": "address"
        }
      ],
      "name": "addRetailer",
      "outputs": [],
      "payable": false,
      "stateMutability": "nonpayable",
      "type": "function"
    },
    {
      "constant": true,
      "inputs": [
        {
          "name": "account",
          "type": "address"
        }
      ],
      "name": "isDistributor",
      "outputs": [
        {
          "name": "",
          "type": "bool"
        }
      ],
      "payable": false,
      "stateMutability": "view",
      "type": "function"
    },
    {
      "constant": true,
      "inputs": [],
      "name": "isOwner",
      "outputs": [
        {
          "name": "",
          "type": "bool"
        }
      ],
      "payable": false,
      "stateMutability": "view",
      "type": "function"
    },
    {
      "constant": true,
      "inputs": [
        {
          "name": "account",
          "type": "address"
        }
      ],
      "name": "isFarmer",
      "outputs": [
        {
          "name": "",
          "type": "bool"
        }
      ],
      "payable": false,
      "stateMutability": "view",
      "type": "function"
    },
    {
      "constant": false,
      "inputs": [],
      "name": "renounceRetailer",
      "outputs": [],
      "payable": false,
      "stateMutability": "nonpayable",
      "type": "function"
    },
    {
      "constant": false,
      "inputs": [
        {
          "name": "newOwner",
          "type": "address"
        }
      ],
      "name": "transferOwnership",
      "outputs": [],
      "payable": false,
      "stateMutability": "nonpayable",
      "type": "function"
    },
    {
      "inputs": [],
      "payable": true,
      "stateMutability": "payable",
      "type": "constructor"
    },
    {
      "anonymous": false,
      "inputs": [
        {
          "indexed": false,
          "name": "upc",
          "type": "uint256"
        }
      ],
      "name": "Planted",
      "type": "event"
    },
    {
      "anonymous": false,
      "inputs": [
        {
          "indexed": false,
          "name": "upc",
          "type": "uint256"
        }
      ],
      "name": "Harvested",
      "type": "event"
    },
    {
      "anonymous": false,
      "inputs": [
        {
          "indexed": false,
          "name": "upc",
          "type": "uint256"
        }
      ],
      "name": "Packed",
      "type": "event"
    },
    {
      "anonymous": false,
      "inputs": [
        {
          "indexed": false,
          "name": "upc",
          "type": "uint256"
        }
      ],
      "name": "ForSale",
      "type": "event"
    },
    {
      "anonymous": false,
      "inputs": [
        {
          "indexed": false,
          "name": "upc",
          "type": "uint256"
        }
      ],
      "name": "Sold",
      "type": "event"
    },
    {
      "anonymous": false,
      "inputs": [
        {
          "indexed": false,
          "name": "upc",
          "type": "uint256"
        }
      ],
      "name": "Shipped",
      "type": "event"
    },
    {
      "anonymous": false,
      "inputs": [
        {
          "indexed": false,
          "name": "upc",
          "type": "uint256"
        }
      ],
      "name": "Received",
      "type": "event"
    },
    {
      "anonymous": false,
      "inputs": [
        {
          "indexed": false,
          "name": "upc",
          "type": "uint256"
        }
      ],
      "name": "Purchased",
      "type": "event"
    },
    {
      "anonymous": false,
      "inputs": [
        {
          "indexed": true,
          "name": "account",
          "type": "address"
        }
      ],
      "name": "ConsumerAdded",
      "type": "event"
    },
    {
      "anonymous": false,
      "inputs": [
        {
          "indexed": true,
          "name": "account",
          "type": "address"
        }
      ],
      "name": "ConsumerRemoved",
      "type": "event"
    },
    {
      "anonymous": false,
      "inputs": [
        {
          "indexed": true,
          "name": "account",
          "type": "address"
        }
      ],
      "name": "RetailerAdded",
      "type": "event"
    },
    {
      "anonymous": false,
      "inputs": [
        {
          "indexed": true,
          "name": "account",
          "type": "address"
        }
      ],
      "name": "RetailerRemoved",
      "type": "event"
    },
    {
      "anonymous": false,
      "inputs": [
        {
          "indexed": true,
          "name": "account",
          "type": "address"
        }
      ],
      "name": "DistributorAdded",
      "type": "event"
    },
    {
      "anonymous": false,
      "inputs": [
        {
          "indexed": true,
          "name": "account",
          "type": "address"
        }
      ],
      "name": "DistributorRemoved",
      "type": "event"
    },
    {
      "anonymous": false,
      "inputs": [
        {
          "indexed": true,
          "name": "account",
          "type": "address"
        }
      ],
      "name": "FarmerAdded",
      "type": "event"
    },
    {
      "anonymous": false,
      "inputs": [
        {
          "indexed": true,
          "name": "account",
          "type": "address"
        }
      ],
      "name": "FarmerRemoved",
      "type": "event"
    },
    {
      "anonymous": false,
      "inputs": [
        {
          "indexed": true,
          "name": "oldOwner",
          "type": "address"
        },
        {
          "indexed": true,
          "name": "newOwner",
          "type": "address"
        }
      ],
      "name": "TransferOwnership",
      "type": "event"
    },
    {
      "constant": false,
      "inputs": [],
      "name": "kill",
      "outputs": [],
      "payable": false,
      "stateMutability": "nonpayable",
      "type": "function"
    },
    {
      "constant": false,
      "inputs": [
        {
          "name": "_upc",
          "type": "uint256"
        },
        {
          "name": "_originFarmID",
          "type": "address"
        },
        {
          "name": "_originFarmName",
          "type": "string"
        },
        {
          "name": "_originFarmInformation",
          "type": "string"
        },
        {
          "name": "_originFarmLatitude",
          "type": "string"
        },
        {
          "name": "_originFarmLongitude",
          "type": "string"
        },
        {
          "name": "_productNotes",
          "type": "string"
        }
      ],
      "name": "plantItem",
      "outputs": [],
      "payable": false,
      "stateMutability": "nonpayable",
      "type": "function"
    },
    {
      "constant": false,
      "inputs": [
        {
          "name": "_upc",
          "type": "uint256"
        }
      ],
      "name": "harvestItem",
      "outputs": [],
      "payable": false,
      "stateMutability": "nonpayable",
      "type": "function"
    },
    {
      "constant": false,
      "inputs": [
        {
          "name": "_upc",
          "type": "uint256"
        }
      ],
      "name": "packItem",
      "outputs": [],
      "payable": false,
      "stateMutability": "nonpayable",
      "type": "function"
    },
    {
      "constant": false,
      "inputs": [
        {
          "name": "_upc",
          "type": "uint256"
        },
        {
          "name": "_price",
          "type": "uint256"
        },
        {
          "name": "_distributorID",
          "type": "address"
        }
      ],
      "name": "sellItem",
      "outputs": [],
      "payable": false,
      "stateMutability": "nonpayable",
      "type": "function"
    },
    {
      "constant": false,
      "inputs": [
        {
          "name": "_upc",
          "type": "uint256"
        }
      ],
      "name": "buyItem",
      "outputs": [],
      "payable": true,
      "stateMutability": "payable",
      "type": "function"
    },
    {
      "constant": false,
      "inputs": [
        {
          "name": "_upc",
          "type": "uint256"
        }
      ],
      "name": "shipItem",
      "outputs": [],
      "payable": false,
      "stateMutability": "nonpayable",
      "type": "function"
    },
    {
      "constant": false,
      "inputs": [
        {
          "name": "_upc",
          "type": "uint256"
        }
      ],
      "name": "receiveItem",
      "outputs": [],
      "payable": false,
      "stateMutability": "nonpayable",
      "type": "function"
    },
    {
      "constant": false,
      "inputs": [
        {
          "name": "_upc",
          "type": "uint256"
        }
      ],
      "name": "purchaseItem",
      "outputs": [],
      "payable": false,
      "stateMutability": "nonpayable",
      "type": "function"
    },
    {
      "constant": true,
      "inputs": [
        {
          "name": "_upc",
          "type": "uint256"
        }
      ],
      "name": "fetchItem",
      "outputs": [
        {
          "name": "itemSKU",
          "type": "uint256"
        },
        {
          "name": "itemUPC",
          "type": "uint256"
        },
        {
          "name": "ownerID",
          "type": "address"
        },
        {
          "name": "originFarmID",
          "type": "address"
        },
        {
          "name": "originFarmName",
          "type": "string"
        },
        {
          "name": "itemState",
          "type": "uint8"
        },
        {
          "name": "productPrice",
          "type": "uint256"
        },
        {
          "name": "retailerID",
          "type": "address"
        },
        {
          "name": "consumerID",
          "type": "address"
        }
      ],
      "payable": false,
      "stateMutability": "view",
      "type": "function"
    }
  ],
  "bytecode": "0x6080604052336000806101000a81548173ffffffffffffffffffffffffffffffffffffffff021916908373ffffffffffffffffffffffffffffffffffffffff1602179055506000809054906101000a900473ffffffffffffffffffffffffffffffffffffffff1673ffffffffffffffffffffffffffffffffffffffff16600073ffffffffffffffffffffffffffffffffffffffff167f5c486528ec3e3f0ea91181cff8116f02bfa350e03b8b6f12e00765adbb5af85c60405160405180910390a3620000da336200017f640100000000026401000000009004565b620000f433620001e9640100000000026401000000009004565b6200010e3362000253640100000000026401000000009004565b6200012833620002bd640100000000026401000000009004565b33600560006101000a81548173ffffffffffffffffffffffffffffffffffffffff021916908373ffffffffffffffffffffffffffffffffffffffff160217905550600160078190555060016006819055506200047f565b620001a3816001620003276401000000000262002247179091906401000000009004565b8073ffffffffffffffffffffffffffffffffffffffff167f2e0ded4123377a3c2bc9a26f1717655a129e2f20752924d42e730ec89c83dbd060405160405180910390a250565b6200020d816002620003276401000000000262002247179091906401000000009004565b8073ffffffffffffffffffffffffffffffffffffffff167fddbf200aa634dc3fb81cfd68583dd1040d1c751d335e1d86b631bde3e977fea860405160405180910390a250565b62000277816003620003276401000000000262002247179091906401000000009004565b8073ffffffffffffffffffffffffffffffffffffffff167f71ae26cad02663e3d92efd6ec56031a80d74a20c0ab4183faa8bf262261c9baa60405160405180910390a250565b620002e1816004620003276401000000000262002247179091906401000000009004565b8073ffffffffffffffffffffffffffffffffffffffff167f28b26e7a3d20aedbc5f8f2ebf7da671c0491723a2b78f47a097b0e46dee0714260405160405180910390a250565b600073ffffffffffffffffffffffffffffffffffffffff168173ffffffffffffffffffffffffffffffffffffffff16141515156200036457600080fd5b6200037f8282620003ea640100000000026401000000009004565b1515156200038c57600080fd5b60018260000160008373ffffffffffffffffffffffffffffffffffffffff1673ffffffffffffffffffffffffffffffffffffffff16815260200190815260200160002060006101000a81548160ff0219169083151502179055505050565b60008073ffffffffffffffffffffffffffffffffffffffff168273ffffffffffffffffffffffffffffffffffffffff16141515156200042857600080fd5b8260000160008373ffffffffffffffffffffffffffffffffffffffff1673ffffffffffffffffffffffffffffffffffffffff16815260200190815260200160002060009054906101000a900460ff16905092915050565b612567806200048f6000396000f300608060405260043610610154576000357c0100000000000000000000000000000000000000000000000000000000900463ffffffff168063112940f914610159578063155621291461019c578063333d6a43146101f357806341c0e1b5146102205780635da09b881461023757806361e6982d14610292578063644241db146102a9578063715018a6146102c05780637250e224146102d757806380c3f96d1461031a57806380fc0ce41461035d578063834ff739146103745780638da5cb5b146103cf5780638ec4f505146104265780638f0c86fa146104695780638f32d59b146104c4578063a26be999146104f3578063ad4b9cfb14610520578063b9429069146106bc578063d38ea5bf14610717578063db0e6a2f14610744578063e7fb74c71461075b578063ea0bdcb01461077b578063f2fde38b14610926578063f30fc48014610969578063f61c899a14610996575b600080fd5b34801561016557600080fd5b5061019a600480360381019080803573ffffffffffffffffffffffffffffffffffffffff1690602001909291905050506109c3565b005b3480156101a857600080fd5b506101f16004803603810190808035906020019092919080359060200190929190803573ffffffffffffffffffffffffffffffffffffffff1690602001909291905050506109e3565b005b3480156101ff57600080fd5b5061021e60048036038101908080359060200190929190505050610af8565b005b34801561022c57600080fd5b50610235610c3a565b005b34801561024357600080fd5b50610278600480360381019080803573ffffffffffffffffffffffffffffffffffffffff169060200190929190505050610ccd565b604051808215151515815260200191505060405180910390f35b34801561029e57600080fd5b506102a7610cea565b005b3480156102b557600080fd5b506102be610cf5565b005b3480156102cc57600080fd5b506102d5610d00565b005b3480156102e357600080fd5b50610318600480360381019080803573ffffffffffffffffffffffffffffffffffffffff169060200190929190505050610e1b565b005b34801561032657600080fd5b5061035b600480360381019080803573ffffffffffffffffffffffffffffffffffffffff169060200190929190505050610e3b565b005b34801561036957600080fd5b50610372610e5b565b005b34801561038057600080fd5b506103b5600480360381019080803573ffffffffffffffffffffffffffffffffffffffff169060200190929190505050610e66565b604051808215151515815260200191505060405180910390f35b3480156103db57600080fd5b506103e4610e83565b604051808273ffffffffffffffffffffffffffffffffffffffff1673ffffffffffffffffffffffffffffffffffffffff16815260200191505060405180910390f35b34801561043257600080fd5b50610467600480360381019080803573ffffffffffffffffffffffffffffffffffffffff169060200190929190505050610eac565b005b34801561047557600080fd5b506104aa600480360381019080803573ffffffffffffffffffffffffffffffffffffffff169060200190929190505050610ecc565b604051808215151515815260200191505060405180910390f35b3480156104d057600080fd5b506104d9610ee9565b604051808215151515815260200191505060405180910390f35b3480156104ff57600080fd5b5061051e60048036038101908080359060200190929190505050610f40565b005b34801561052c57600080fd5b5061054b600480360381019080803590602001909291905050506110ac565b604051808a81526020018981526020018873ffffffffffffffffffffffffffffffffffffffff1673ffffffffffffffffffffffffffffffffffffffff1681526020018773ffffffffffffffffffffffffffffffffffffffff1673ffffffffffffffffffffffffffffffffffffffff168152602001806020018660078111156105cf57fe5b60ff1681526020018581526020018473ffffffffffffffffffffffffffffffffffffffff1673ffffffffffffffffffffffffffffffffffffffff1681526020018373ffffffffffffffffffffffffffffffffffffffff1673ffffffffffffffffffffffffffffffffffffffff168152602001828103825287818151815260200191508051906020019080838360005b8381101561067957808201518184015260208101905061065e565b50505050905090810190601f1680156106a65780820380516001836020036101000a031916815260200191505b509a505050505050505050505060405180910390f35b3480156106c857600080fd5b506106fd600480360381019080803573ffffffffffffffffffffffffffffffffffffffff1690602001909291905050506112e8565b604051808215151515815260200191505060405180910390f35b34801561072357600080fd5b5061074260048036038101908080359060200190929190505050611305565b005b34801561075057600080fd5b50610759611471565b005b6107796004803603810190808035906020019092919050505061147c565b005b34801561078757600080fd5b5061092460048036038101908080359060200190929190803573ffffffffffffffffffffffffffffffffffffffff169060200190929190803590602001908201803590602001908080601f0160208091040260200160405190810160405280939291908181526020018383808284378201915050505050509192919290803590602001908201803590602001908080601f0160208091040260200160405190810160405280939291908181526020018383808284378201915050505050509192919290803590602001908201803590602001908080601f0160208091040260200160405190810160405280939291908181526020018383808284378201915050505050509192919290803590602001908201803590602001908080601f0160208091040260200160405190810160405280939291908181526020018383808284378201915050505050509192919290803590602001908201803590602001908080601f0160208091040260200160405190810160405280939291908181526020018383808284378201915050505050509192919290505050611744565b005b34801561093257600080fd5b50610967600480360381019080803573ffffffffffffffffffffffffffffffffffffffff169060200190929190505050611b47565b005b34801561097557600080fd5b5061099460048036038101908080359060200190929190505050611baf565b005b3480156109a257600080fd5b506109c160048036038101908080359060200190929190505050611cf1565b005b6109cc33610e66565b15156109d757600080fd5b6109e081611de9565b50565b6109ec336112e8565b15156109f757600080fd5b8260026007811115610a0557fe5b60086000838152602001908152602001600020600b0160009054906101000a900460ff166007811115610a3457fe5b141515610a4057600080fd5b6008600085815260200190815260200160002060020160009054906101000a900473ffffffffffffffffffffffffffffffffffffffff168073ffffffffffffffffffffffffffffffffffffffff163373ffffffffffffffffffffffffffffffffffffffff16141515610ab157600080fd5b610aba83610e1b565b7fa96ae0fc3224ebd79eebfe54bd130cc9cb94416cddd1f2386115e00b72532468856040518082815260200191505060405180910390a15050505050565b610b01336112e8565b1515610b0c57600080fd5b8060006007811115610b1a57fe5b60086000838152602001908152602001600020600b0160009054906101000a900460ff166007811115610b4957fe5b141515610b5557600080fd5b6008600083815260200190815260200160002060020160009054906101000a900473ffffffffffffffffffffffffffffffffffffffff168073ffffffffffffffffffffffffffffffffffffffff163373ffffffffffffffffffffffffffffffffffffffff16141515610bc657600080fd5b600160086000858152602001908152602001600020600b0160006101000a81548160ff02191690836007811115610bf957fe5b02179055507f8e55ccfc9778ff8eba1646d765cf1982537ce0f9257054a17b48aad745250183836040518082815260200191505060405180910390a1505050565b600560009054906101000a900473ffffffffffffffffffffffffffffffffffffffff1673ffffffffffffffffffffffffffffffffffffffff163373ffffffffffffffffffffffffffffffffffffffff161415610ccb57600560009054906101000a900473ffffffffffffffffffffffffffffffffffffffff1673ffffffffffffffffffffffffffffffffffffffff16ff5b565b6000610ce3826003611e4390919063ffffffff16565b9050919050565b610cf333611ed7565b565b610cfe33611f31565b565b600560009054906101000a900473ffffffffffffffffffffffffffffffffffffffff1673ffffffffffffffffffffffffffffffffffffffff163373ffffffffffffffffffffffffffffffffffffffff16141515610d5c57600080fd5b600073ffffffffffffffffffffffffffffffffffffffff166000809054906101000a900473ffffffffffffffffffffffffffffffffffffffff1673ffffffffffffffffffffffffffffffffffffffff167f5c486528ec3e3f0ea91181cff8116f02bfa350e03b8b6f12e00765adbb5af85c60405160405180910390a360008060006101000a81548173ffffffffffffffffffffffffffffffffffffffff021916908373ffffffffffffffffffffffffffffffffffffffff160217905550565b610e2433610ecc565b1515610e2f57600080fd5b610e3881611f8b565b50565b610e44336112e8565b1515610e4f57600080fd5b610e5881611fe5565b50565b610e643361203f565b565b6000610e7c826004611e4390919063ffffffff16565b9050919050565b60008060009054906101000a900473ffffffffffffffffffffffffffffffffffffffff16905090565b610eb533610ccd565b1515610ec057600080fd5b610ec981612099565b50565b6000610ee2826002611e4390919063ffffffff16565b9050919050565b60008060009054906101000a900473ffffffffffffffffffffffffffffffffffffffff1673ffffffffffffffffffffffffffffffffffffffff163373ffffffffffffffffffffffffffffffffffffffff1614905090565b60008160056007811115610f5057fe5b60086000838152602001908152602001600020600b0160009054906101000a900460ff166007811115610f7f57fe5b141515610f8b57600080fd5b339150816008600085815260200190815260200160002060020160006101000a81548173ffffffffffffffffffffffffffffffffffffffff021916908373ffffffffffffffffffffffffffffffffffffffff1602179055508160086000858152602001908152602001600020600c0160006101000a81548173ffffffffffffffffffffffffffffffffffffffff021916908373ffffffffffffffffffffffffffffffffffffffff160217905550600660086000858152602001908152602001600020600b0160006101000a81548160ff0219169083600781111561106b57fe5b02179055507fa8142743f8f70a4c26f3691cf4ed59718381fb2f18070ec52be1f1022d855557836040518082815260200191505060405180910390a1505050565b6000806000806060600080600080600860008b8152602001908152602001600020600001549850600860008b8152602001908152602001600020600101549750600860008b815260200190815260200160002060020160009054906101000a900473ffffffffffffffffffffffffffffffffffffffff169650600860008b815260200190815260200160002060030160009054906101000a900473ffffffffffffffffffffffffffffffffffffffff169550600860008b81526020019081526020016000206004018054600181600116156101000203166002900480601f0160208091040260200160405190810160405280929190818152602001828054600181600116156101000203166002900480156112085780601f106111dd57610100808354040283529160200191611208565b820191906000526020600020905b8154815290600101906020018083116111eb57829003601f168201915b50505050509450600860008b8152602001908152602001600020600b0160009054906101000a900460ff169350600860008b8152602001908152602001600020600a01549250600860008b8152602001908152602001600020600c0160009054906101000a900473ffffffffffffffffffffffffffffffffffffffff169150600860008b8152602001908152602001600020600d0160009054906101000a900473ffffffffffffffffffffffffffffffffffffffff1690508888888888888888889850985098509850985098509850985098509193959799909294969850565b60006112fe826001611e4390919063ffffffff16565b9050919050565b6000816006600781111561131557fe5b60086000838152602001908152602001600020600b0160009054906101000a900460ff16600781111561134457fe5b14151561135057600080fd5b339150816008600085815260200190815260200160002060020160006101000a81548173ffffffffffffffffffffffffffffffffffffffff021916908373ffffffffffffffffffffffffffffffffffffffff1602179055508160086000858152602001908152602001600020600d0160006101000a81548173ffffffffffffffffffffffffffffffffffffffff021916908373ffffffffffffffffffffffffffffffffffffffff160217905550600760086000858152602001908152602001600020600b0160006101000a81548160ff0219169083600781111561143057fe5b02179055507f653d56639fee6b566a5c804764e9689de38645f0b733df89a36a1b7b42173dd8836040518082815260200191505060405180910390a1505050565b61147a336120f3565b565b6000816003600781111561148c57fe5b60086000838152602001908152602001600020600b0160009054906101000a900460ff1660078111156114bb57fe5b1415156114c757600080fd5b60086000848152602001908152602001600020600a01548034101515156114ed57600080fd5b8360008060086000848152602001908152602001600020600a01549150813403905060086000848152602001908152602001600020600d0160009054906101000a900473ffffffffffffffffffffffffffffffffffffffff1673ffffffffffffffffffffffffffffffffffffffff166108fc829081150290604051600060405180830381858888f1935050505015801561158b573d6000803e3d6000fd5b50339550856008600089815260200190815260200160002060020160006101000a81548173ffffffffffffffffffffffffffffffffffffffff021916908373ffffffffffffffffffffffffffffffffffffffff1602179055508560086000898152602001908152602001600020600b0160016101000a81548173ffffffffffffffffffffffffffffffffffffffff021916908373ffffffffffffffffffffffffffffffffffffffff160217905550600460086000898152602001908152602001600020600b0160006101000a81548160ff0219169083600781111561166c57fe5b02179055506008600088815260200190815260200160002060030160009054906101000a900473ffffffffffffffffffffffffffffffffffffffff1673ffffffffffffffffffffffffffffffffffffffff166108fc600860008a8152602001908152602001600020600a01549081150290604051600060405180830381858888f19350505050158015611703573d6000803e3d6000fd5b507f92f64ca637d023f354075a4be751b169c1a8a9ccb6d33cdd0cb3520543995727876040518082815260200191505060405180910390a150505050505050565b61174c6123a6565b600560009054906101000a900473ffffffffffffffffffffffffffffffffffffffff1673ffffffffffffffffffffffffffffffffffffffff163373ffffffffffffffffffffffffffffffffffffffff161415156117a857600080fd5b6117b187610e3b565b6117ba87611b47565b8781602001818152505060075481600001818152505087600754018161010001818152505086816040019073ffffffffffffffffffffffffffffffffffffffff16908173ffffffffffffffffffffffffffffffffffffffff168152505086816060019073ffffffffffffffffffffffffffffffffffffffff16908173ffffffffffffffffffffffffffffffffffffffff1681525050858160800181905250848160a00181905250838160c00181905250828160e001819052506000816101600190600781111561188657fe5b9081600781111561189357fe5b8152505080600860008a8152602001908152602001600020600082015181600001556020820151816001015560408201518160020160006101000a81548173ffffffffffffffffffffffffffffffffffffffff021916908373ffffffffffffffffffffffffffffffffffffffff16021790555060608201518160030160006101000a81548173ffffffffffffffffffffffffffffffffffffffff021916908373ffffffffffffffffffffffffffffffffffffffff1602179055506080820151816004019080519060200190611969929190612496565b5060a0820151816005019080519060200190611986929190612496565b5060c08201518160060190805190602001906119a3929190612496565b5060e08201518160070190805190602001906119c0929190612496565b5061010082015181600801556101208201518160090190805190602001906119e9929190612496565b5061014082015181600a015561016082015181600b0160006101000a81548160ff02191690836007811115611a1a57fe5b021790555061018082015181600b0160016101000a81548173ffffffffffffffffffffffffffffffffffffffff021916908373ffffffffffffffffffffffffffffffffffffffff1602179055506101a082015181600c0160006101000a81548173ffffffffffffffffffffffffffffffffffffffff021916908373ffffffffffffffffffffffffffffffffffffffff1602179055506101c082015181600d0160006101000a81548173ffffffffffffffffffffffffffffffffffffffff021916908373ffffffffffffffffffffffffffffffffffffffff1602179055509050506001600754016007819055507f1c3398af928f961cf9c1f49d3892d391f45dde3731266f32690ec2a94c3d3d50886040518082815260200191505060405180910390a15050505050505050565b600560009054906101000a900473ffffffffffffffffffffffffffffffffffffffff1673ffffffffffffffffffffffffffffffffffffffff163373ffffffffffffffffffffffffffffffffffffffff16141515611ba357600080fd5b611bac8161214d565b50565b611bb8336112e8565b1515611bc357600080fd5b8060016007811115611bd157fe5b60086000838152602001908152602001600020600b0160009054906101000a900460ff166007811115611c0057fe5b141515611c0c57600080fd5b6008600083815260200190815260200160002060020160009054906101000a900473ffffffffffffffffffffffffffffffffffffffff168073ffffffffffffffffffffffffffffffffffffffff163373ffffffffffffffffffffffffffffffffffffffff16141515611c7d57600080fd5b600260086000858152602001908152602001600020600b0160006101000a81548160ff02191690836007811115611cb057fe5b02179055507f9b3b66e2380b690bae22c73ef1428fb0c91e72fe14a4b6defa13035214187aff836040518082815260200191505060405180910390a1505050565b8060046007811115611cff57fe5b60086000838152602001908152602001600020600b0160009054906101000a900460ff166007811115611d2e57fe5b141515611d3a57600080fd5b338073ffffffffffffffffffffffffffffffffffffffff163373ffffffffffffffffffffffffffffffffffffffff16141515611d7557600080fd5b600560086000858152602001908152602001600020600b0160006101000a81548160ff02191690836007811115611da857fe5b02179055507ff00b9a5725b80c54016f42114f6ed7792d22eecb116011c4afac29c57bef6c95836040518082815260200191505060405180910390a1505050565b611dfd81600461224790919063ffffffff16565b8073ffffffffffffffffffffffffffffffffffffffff167f28b26e7a3d20aedbc5f8f2ebf7da671c0491723a2b78f47a097b0e46dee0714260405160405180910390a250565b60008073ffffffffffffffffffffffffffffffffffffffff168273ffffffffffffffffffffffffffffffffffffffff1614151515611e8057600080fd5b8260000160008373ffffffffffffffffffffffffffffffffffffffff1673ffffffffffffffffffffffffffffffffffffffff16815260200190815260200160002060009054906101000a900460ff16905092915050565b611eeb8160046122f790919063ffffffff16565b8073ffffffffffffffffffffffffffffffffffffffff167fe3f5ed5f263f1f01764a96edfc7d025f511ec5f7d180e8816908b78bcf74f09860405160405180910390a250565b611f458160026122f790919063ffffffff16565b8073ffffffffffffffffffffffffffffffffffffffff167f126174f6cf49c81cdb4a9214c6b8f037bef55b4ec31e4fc776cea2a1c8a88d5960405160405180910390a250565b611f9f81600261224790919063ffffffff16565b8073ffffffffffffffffffffffffffffffffffffffff167fddbf200aa634dc3fb81cfd68583dd1040d1c751d335e1d86b631bde3e977fea860405160405180910390a250565b611ff981600161224790919063ffffffff16565b8073ffffffffffffffffffffffffffffffffffffffff167f2e0ded4123377a3c2bc9a26f1717655a129e2f20752924d42e730ec89c83dbd060405160405180910390a250565b6120538160016122f790919063ffffffff16565b8073ffffffffffffffffffffffffffffffffffffffff167fa5e0f060af304ab17dd418c7927e3da3ae7868189bf387aee09ab179ccc572f260405160405180910390a250565b6120ad81600361224790919063ffffffff16565b8073ffffffffffffffffffffffffffffffffffffffff167f71ae26cad02663e3d92efd6ec56031a80d74a20c0ab4183faa8bf262261c9baa60405160405180910390a250565b6121078160036122f790919063ffffffff16565b8073ffffffffffffffffffffffffffffffffffffffff167fdb7176e79cffef81cb01767dd0447a0b24bb72ca9778d4b245581086b2a7e6db60405160405180910390a250565b600073ffffffffffffffffffffffffffffffffffffffff168173ffffffffffffffffffffffffffffffffffffffff161415151561218957600080fd5b8073ffffffffffffffffffffffffffffffffffffffff166000809054906101000a900473ffffffffffffffffffffffffffffffffffffffff1673ffffffffffffffffffffffffffffffffffffffff167f5c486528ec3e3f0ea91181cff8116f02bfa350e03b8b6f12e00765adbb5af85c60405160405180910390a3806000806101000a81548173ffffffffffffffffffffffffffffffffffffffff021916908373ffffffffffffffffffffffffffffffffffffffff16021790555050565b600073ffffffffffffffffffffffffffffffffffffffff168173ffffffffffffffffffffffffffffffffffffffff161415151561228357600080fd5b61228d8282611e43565b15151561229957600080fd5b60018260000160008373ffffffffffffffffffffffffffffffffffffffff1673ffffffffffffffffffffffffffffffffffffffff16815260200190815260200160002060006101000a81548160ff0219169083151502179055505050565b600073ffffffffffffffffffffffffffffffffffffffff168173ffffffffffffffffffffffffffffffffffffffff161415151561233357600080fd5b61233d8282611e43565b151561234857600080fd5b60008260000160008373ffffffffffffffffffffffffffffffffffffffff1673ffffffffffffffffffffffffffffffffffffffff16815260200190815260200160002060006101000a81548160ff0219169083151502179055505050565b6101e0604051908101604052806000815260200160008152602001600073ffffffffffffffffffffffffffffffffffffffff168152602001600073ffffffffffffffffffffffffffffffffffffffff168152602001606081526020016060815260200160608152602001606081526020016000815260200160608152602001600081526020016000600781111561243957fe5b8152602001600073ffffffffffffffffffffffffffffffffffffffff168152602001600073ffffffffffffffffffffffffffffffffffffffff168152602001600073ffffffffffffffffffffffffffffffffffffffff1681525090565b828054600181600116156101000203166002900490600052602060002090601f016020900481019282601f106124d757805160ff1916838001178555612505565b82800160010185558215612505579182015b828111156125045782518255916020019190600101906124e9565b5b5090506125129190612516565b5090565b61253891905b8082111561253457600081600090555060010161251c565b5090565b905600a165627a7a72305820c137304774fea44ba82353468e32567b89053a8750c4db8ed73beacdb7ad2c720029",
  "source": "pragma solidity ^0.4.24;\n\n  import \"../coffeeaccesscontrol/FarmerRole.sol\";\n  import \"../coffeeaccesscontrol/DistributorRole.sol\";\n  import \"../coffeeaccesscontrol/RetailerRole.sol\";\n  import \"../coffeeaccesscontrol/ConsumerRole.sol\";\n  import \"../coffeecore/Ownable.sol\";\n\n  contract SupplyChain is Ownable, FarmerRole, DistributorRole, RetailerRole, ConsumerRole{\n\n  // Define 'owner'\n  address contractOwner;\n\n  // Define a variable called 'upc' for Universal Product Code (UPC)\n  uint  upc;\n\n  // Define a variable called 'sku' for Stock Keeping Unit (SKU)\n  uint  sku;\n\n  // Define a public mapping 'items' that maps the UPC to an Item.\n  mapping (uint => Item) items;\n\n  // Define a public mapping 'itemsHistory' that maps the UPC to an array of TxHash,\n  // that track its journey through the supply chain -- to be sent from DApp.\n  mapping (uint => string[]) itemsHistory;\n\n  // Define enum 'State' with the following values:\n  enum State\n  {\n    Planted,  // 0\n    Harvested,  // 1\n    Packed,     // 2\n    ForSale,    // 3\n    Sold,       // 4\n    Shipped,    // 5\n    Received,   // 6\n    Purchased   // 7\n    }\n\n  State constant defaultState = State.Planted;\n\n  // Define a struct 'Item' with the following fields:\n    struct Item {\n    uint    sku;  // Stock Keeping Unit (SKU)\n    uint    upc; // Universal Product Code (UPC), generated by the Farmer, goes on the package, can be verified by the Consumer\n    address ownerID;  // Metamask-Ethereum address of the current owner as the product moves through 8 stages\n    address originFarmID; // Metamask-Ethereum address of the Farmer\n    string  originFarmName; // Farmer Name\n    string  originFarmInformation;  // Farmer Information\n    string  originFarmLatitude; // Farm Latitude\n    string  originFarmLongitude;  // Farm Longitude\n    uint    productID;  // Product ID potentially a combination of upc + sku\n    string  productNotes; // Product Notes\n    uint    productPrice; // Product Price\n    State   itemState;  // Product State as represented in the enum above\n    address distributorID;  // Metamask-Ethereum address of the Distributor\n    address retailerID; // Metamask-Ethereum address of the Retailer\n    address consumerID; // Metamask-Ethereum address of the Consumer\n  }\n\n  // Define 8 events with the same 8 state values and accept 'upc' as input argument\n  event Planted(uint upc);\n  event Harvested(uint upc);\n  event Packed(uint upc);\n  event ForSale(uint upc);\n  event Sold(uint upc);\n  event Shipped(uint upc);\n  event Received(uint upc);\n  event Purchased(uint upc);\n\n  // Define a modifer that checks to see if msg.sender == owner of the contract\n  modifier onlyOwner() {\n  require(msg.sender == contractOwner);\n  _;\n}\n\n  // Define a modifer that verifies the Caller\n  modifier verifyCaller (address _address) {\n    require(msg.sender == _address);\n    _;\n  }\n\n  // Define a modifier that checks if the paid amount is sufficient to cover the price\n  modifier paidEnough(uint _price) {\n    //emit Debug(msg.sender, msg.value, _price);\n    require(msg.value >= _price);\n    _;\n  }\n\n  // Define a modifier that checks the price and refunds the remaining balance\n  modifier checkValue(uint _upc) {\n    uint _price = items[_upc].productPrice;\n    uint amountToReturn = msg.value - _price;\n    items[_upc].consumerID.transfer(amountToReturn);\n    _;\n  }\n\n  // Define a modifier that checks if an item.state of a upc is Planted\n  modifier planted(uint _upc) {\n    require(items[_upc].itemState == State.Planted);\n    _;\n  }\n\n  // Define a modifier that checks if an item.state of a upc is ForSale\n  modifier forSale(uint _upc) {\n    require(items[_upc].itemState == State.ForSale);\n    _;\n  }\n\n  // Define a modifier that checks if an item.state of a upc is Sold\n  modifier sold(uint _upc) {\n    require(items[_upc].itemState == State.Sold);\n    _;\n  }\n\n  // Define a modifier that checks if an item.state of a upc is Harvested\n  modifier harvested(uint _upc) {\n    require(items[_upc].itemState == State.Harvested);\n    _;\n  }\n\n  // Define a modifier that checks if an item.state of a upc is Packed\n  modifier packed(uint _upc) {\n    require(items[_upc].itemState == State.Packed);\n    _;\n  }\n\n  // Define a modifier that checks if an item.state of a upc is Shipped\n  modifier shipped(uint _upc) {\n    require(items[_upc].itemState == State.Shipped);\n    _;\n  }\n\n  // Define a modifier that checks if an item.state of a upc is Received\n  modifier received(uint _upc) {\n    require(items[_upc].itemState == State.Received);\n    _;\n  }\n\n  // Define a modifier that checks if an item.state of a upc is Purchased\n  modifier purchased(uint _upc) {\n    require(items[_upc].itemState == State.Purchased);\n    _;\n  }\n\n  // In the constructor set 'owner' to the address that instantiated the contract\n  // and set 'sku' to 1\n  // and set 'upc' to 1\n  constructor() public payable {\n    contractOwner = msg.sender;\n    sku = 1;\n    upc = 1;\n  }\n\n  // Define a function 'kill' if required\n  function kill() public {\n    if (msg.sender == contractOwner) {\n      selfdestruct(contractOwner);\n    }\n  }\n\n  // Define a function 'harvestItem' that allows a farmer to mark an item 'Planted'\n  function plantItem(uint _upc, address _originFarmID, string _originFarmName, string _originFarmInformation, string  _originFarmLatitude, string  _originFarmLongitude, string  _productNotes) public\n\n  onlyOwner()\n\n  {\n    addFarmer(_originFarmID);\n    transferOwnership(_originFarmID);\n\n    // Add the new item as part of Processed\n        Item memory newItem;\n        newItem.upc = _upc;\n        newItem.sku = sku;\n        newItem.productID = sku + _upc;\n        newItem.ownerID = _originFarmID;\n        newItem.originFarmID = _originFarmID;\n        newItem.originFarmName = _originFarmName;\n        newItem.originFarmInformation = _originFarmInformation;\n        newItem.originFarmLatitude = _originFarmLatitude;\n        newItem.originFarmLongitude = _originFarmLongitude;\n        newItem.itemState = defaultState;\n\n        items[_upc] = newItem;\n\n        // Increment sku\n        sku = sku + 1;\n\n        // Emit the appropriate event\n        emit Planted(_upc);\n\n\n\n  }\n  // Define a function 'processItem' that allows a farmer to mark an item 'Harvested'\n  function harvestItem(uint _upc)  public\n  //  onlyOwner()\n     onlyFarmer()\n        // Call modifier to check if upc has passed previous supply chain stage\n     planted(_upc)\n\n      // Call modifier to verify caller of this function\n    verifyCaller(items[_upc].ownerID)\n    {\n        // Update the appropriate fields\n        items[_upc].itemState = State.Harvested;\n\n        // Emit the appropriate event\n        emit Harvested(_upc);\n    }\n\n\n  // Define a function 'packItem' that allows a farmer to mark an item 'Packed'\n  function packItem(uint _upc)   public\n  // Call modifier to check if upc has passed previous supply chain stage\n\n  // Call modifier to verify caller of this function\n\n  onlyFarmer()\n  harvested(_upc)\n\n  verifyCaller(items[_upc].ownerID)\n  {\n      // Update the appropriate fields\n      items[_upc].itemState = State.Packed;\n\n      // Emit the appropriate event\n      emit Packed(_upc);\n  }\n\n\n  // Define a function 'sellItem' that allows a farmer to mark an item 'ForSale'\n  function sellItem(uint _upc, uint _price, address _distributorID)  public\n  // Call modifier to check if upc has passed previous supply chain stage\n\n  // Call modifier to verify caller of this function\n  onlyFarmer()\n  packed(_upc)\n\n   verifyCaller(items[_upc].ownerID)\n    {\n\n\n         addDistributor(_distributorID);\n          /*transferOwnership(distributorID);\n\n        // Update the appropriate fields\n        items[_upc].ownerID = distributorID;\n        items[_upc].distributorID = distributorID;\n        items[_upc].itemState = State.ForSale;\n        items[_upc].productPrice = _price;\n\n    */    // Emit the appropriate event\n        emit ForSale(_upc);\n    }\n  // Define a function 'buyItem' that allows the distributor to mark an item 'Sold'\n  // Use the above defined modifiers to check if the item is available for sale, if the buyer has paid enough,\n  // and any excess ether sent is refunded back to the buyer\n  function buyItem(uint _upc)  public payable\n      forSale(_upc) paidEnough(items[_upc].productPrice) checkValue(_upc)\n    // Call modifier to check if upc has passed previous supply chain stage\n    //addDistributor(_originFarmerID);\n    //transferOwnership(_originFarmerID);\n    // Call modifer to check if buyer has paid enough\n\n    // Call modifer to send any excess ether back to buyer\n\n  {\n    // Update the appropriate fields - ownerID,  itemState\n\n    address distributor = msg.sender;\n    items[_upc].ownerID = distributor;\n    items[_upc].distributorID = distributor;\n    items[_upc].itemState = State.Sold;\n\n    // Transfer money to farmer\n    items[_upc].originFarmID.transfer(items[_upc].productPrice);\n\n    // emit the appropriate event\n    emit Sold(_upc);\n  }\n\n  // Define a function 'shipItem' that allows the distributor to mark an item 'Shipped'\n  // Use the above modifers to check if the item is sold\n  function shipItem(uint _upc) sold(_upc) verifyCaller(msg.sender) public\n    // Call modifier to check if upc has passed previous supply chain stage\n\n    // Call modifier to verify caller of this function\n\n  {\n    // Update the appropriate fields\n    items[_upc].itemState = State.Shipped;\n\n    // Emit the appropriate event\n    emit Shipped(_upc);\n\n  }\n\n  // Define a function 'receiveItem' that allows the retailer to mark an item 'Received'\n  // Use the above modifiers to check if the item is shipped\n  function receiveItem(uint _upc) shipped(_upc) public\n    // Call modifier to check if upc has passed previous supply chain stage\n\n    // Access Control List enforced by calling Smart Contract / DApp\n  {\n    // Update the appropriate fields - ownerID, retailerID, itemState\n    address retailer = msg.sender;\n    items[_upc].ownerID = retailer;\n    items[_upc].retailerID = retailer;\n    items[_upc].itemState = State.Received;\n\n    // Emit the appropriate event\n    emit Received(_upc);\n\n  }\n\n  // Define a function 'purchaseItem' that allows the consumer to mark an item 'Purchased'\n  // Use the above modifiers to check if the item is received\n  function purchaseItem(uint _upc) received(_upc) public\n    // Call modifier to check if upc has passed previous supply chain stage\n\n    // Access Control List enforced by calling Smart Contract / DApp\n  {\n    // Update the appropriate fields - ownerID, consumerID, itemState\n    address consumer = msg.sender;\n    items[_upc].ownerID = consumer;\n    items[_upc].consumerID = consumer;\n    items[_upc].itemState = State.Purchased;\n\n    // Emit the appropriate event\n    emit Purchased(_upc);\n\n  }\n\n  function fetchItem(uint _upc) public view returns\n    (\n        uint itemSKU,\n        uint itemUPC,\n        address ownerID,\n        address originFarmID,\n        string originFarmName,\n        State itemState,\n        uint productPrice,\n        address retailerID,\n        address consumerID\n    )\n    {\n        // Assign values to the parameters\n\n        itemSKU = items[_upc].sku;\n        itemUPC = items[_upc].upc;\n        ownerID = items[_upc].ownerID;\n        originFarmID = items[_upc].originFarmID;\n        originFarmName = items[_upc].originFarmName;\n        itemState = items[_upc].itemState;\n        productPrice = items[_upc].productPrice;\n        retailerID = items[_upc].retailerID;\n        consumerID = items[_upc].consumerID;\n\n        return\n        (\n        itemSKU,\n        itemUPC,\n        ownerID,\n        originFarmID,\n        originFarmName,\n        itemState,\n        productPrice,\n        retailerID,\n        consumerID\n        );\n    }\n\n}\n",
  "sourcePath": "/Users/kevinkeaveney/github/udacity-blockchain-developer-nanodegree/Project_6B/contracts/coffeebase/SupplyChain.sol",
  "compiler": {
    "name": "solc",
    "version": "0.4.24+commit.e67f0147.Emscripten.clang"
  },
  "schemaVersion": "2.0.1",
  "updatedAt": "2019-04-30T21:27:36.902Z"
}