{
  "contractName": "SupplyChain",
  "abi": [
    {
      "inputs": [],
      "payable": true,
      "stateMutability": "payable",
      "type": "constructor"
    },
    {
      "anonymous": false,
      "inputs": [
        {
          "indexed": false,
          "name": "upc",
          "type": "uint256"
        }
      ],
      "name": "Planted",
      "type": "event"
    },
    {
      "anonymous": false,
      "inputs": [
        {
          "indexed": false,
          "name": "upc",
          "type": "uint256"
        }
      ],
      "name": "Harvested",
      "type": "event"
    },
    {
      "anonymous": false,
      "inputs": [
        {
          "indexed": false,
          "name": "upc",
          "type": "uint256"
        }
      ],
      "name": "Packed",
      "type": "event"
    },
    {
      "anonymous": false,
      "inputs": [
        {
          "indexed": false,
          "name": "upc",
          "type": "uint256"
        }
      ],
      "name": "ForSale",
      "type": "event"
    },
    {
      "anonymous": false,
      "inputs": [
        {
          "indexed": false,
          "name": "upc",
          "type": "uint256"
        }
      ],
      "name": "Sold",
      "type": "event"
    },
    {
      "anonymous": false,
      "inputs": [
        {
          "indexed": false,
          "name": "upc",
          "type": "uint256"
        }
      ],
      "name": "Shipped",
      "type": "event"
    },
    {
      "anonymous": false,
      "inputs": [
        {
          "indexed": false,
          "name": "upc",
          "type": "uint256"
        }
      ],
      "name": "Received",
      "type": "event"
    },
    {
      "anonymous": false,
      "inputs": [
        {
          "indexed": false,
          "name": "upc",
          "type": "uint256"
        }
      ],
      "name": "Purchased",
      "type": "event"
    },
    {
      "constant": false,
      "inputs": [],
      "name": "kill",
      "outputs": [],
      "payable": false,
      "stateMutability": "nonpayable",
      "type": "function"
    },
    {
      "constant": false,
      "inputs": [
        {
          "name": "_upc",
          "type": "uint256"
        },
        {
          "name": "_originFarmerID",
          "type": "address"
        },
        {
          "name": "_originFarmName",
          "type": "string"
        },
        {
          "name": "_originFarmInformation",
          "type": "string"
        },
        {
          "name": "_originFarmLatitude",
          "type": "string"
        },
        {
          "name": "_originFarmLongitude",
          "type": "string"
        },
        {
          "name": "_productNotes",
          "type": "string"
        }
      ],
      "name": "plantItem",
      "outputs": [],
      "payable": false,
      "stateMutability": "nonpayable",
      "type": "function"
    },
    {
      "constant": false,
      "inputs": [
        {
          "name": "_upc",
          "type": "uint256"
        }
      ],
      "name": "harvestItem",
      "outputs": [],
      "payable": false,
      "stateMutability": "nonpayable",
      "type": "function"
    },
    {
      "constant": false,
      "inputs": [
        {
          "name": "_upc",
          "type": "uint256"
        }
      ],
      "name": "packItem",
      "outputs": [],
      "payable": false,
      "stateMutability": "nonpayable",
      "type": "function"
    },
    {
      "constant": false,
      "inputs": [
        {
          "name": "_upc",
          "type": "uint256"
        },
        {
          "name": "_price",
          "type": "uint256"
        }
      ],
      "name": "sellItem",
      "outputs": [],
      "payable": false,
      "stateMutability": "nonpayable",
      "type": "function"
    },
    {
      "constant": false,
      "inputs": [
        {
          "name": "_upc",
          "type": "uint256"
        }
      ],
      "name": "buyItem",
      "outputs": [],
      "payable": true,
      "stateMutability": "payable",
      "type": "function"
    },
    {
      "constant": false,
      "inputs": [
        {
          "name": "_upc",
          "type": "uint256"
        }
      ],
      "name": "shipItem",
      "outputs": [],
      "payable": false,
      "stateMutability": "nonpayable",
      "type": "function"
    },
    {
      "constant": false,
      "inputs": [
        {
          "name": "_upc",
          "type": "uint256"
        }
      ],
      "name": "receiveItem",
      "outputs": [],
      "payable": false,
      "stateMutability": "nonpayable",
      "type": "function"
    },
    {
      "constant": false,
      "inputs": [
        {
          "name": "_upc",
          "type": "uint256"
        }
      ],
      "name": "purchaseItem",
      "outputs": [],
      "payable": false,
      "stateMutability": "nonpayable",
      "type": "function"
    },
    {
      "constant": true,
      "inputs": [
        {
          "name": "_upc",
          "type": "uint256"
        }
      ],
      "name": "fetchItemBufferOne",
      "outputs": [
        {
          "name": "itemSKU",
          "type": "uint256"
        },
        {
          "name": "itemUPC",
          "type": "uint256"
        },
        {
          "name": "ownerID",
          "type": "address"
        },
        {
          "name": "originFarmerID",
          "type": "address"
        },
        {
          "name": "originFarmName",
          "type": "string"
        },
        {
          "name": "originFarmInformation",
          "type": "string"
        },
        {
          "name": "originFarmLatitude",
          "type": "string"
        },
        {
          "name": "originFarmLongitude",
          "type": "string"
        }
      ],
      "payable": false,
      "stateMutability": "view",
      "type": "function"
    },
    {
      "constant": true,
      "inputs": [
        {
          "name": "_upc",
          "type": "uint256"
        }
      ],
      "name": "fetchItemBufferTwo",
      "outputs": [
        {
          "name": "itemSKU",
          "type": "uint256"
        },
        {
          "name": "itemUPC",
          "type": "uint256"
        },
        {
          "name": "productID",
          "type": "uint256"
        },
        {
          "name": "productNotes",
          "type": "string"
        },
        {
          "name": "productPrice",
          "type": "uint256"
        },
        {
          "name": "itemState",
          "type": "uint8"
        },
        {
          "name": "distributorID",
          "type": "address"
        },
        {
          "name": "retailerID",
          "type": "address"
        },
        {
          "name": "consumerID",
          "type": "address"
        }
      ],
      "payable": false,
      "stateMutability": "view",
      "type": "function"
    }
  ],
  "bytecode": "0x6080604052336000806101000a81548173ffffffffffffffffffffffffffffffffffffffff021916908373ffffffffffffffffffffffffffffffffffffffff160217905550600160028190555060018081905550611aaf806100626000396000f3006080604052600436106100af576000357c0100000000000000000000000000000000000000000000000000000000900463ffffffff1680632d923561146100b4578063333d6a43146100eb57806341c0e1b51461011857806366225ff91461012f57806377c459131461029f578063a26be999146104fd578063d38ea5bf1461052a578063e7fb74c714610557578063ea0bdcb014610577578063f30fc48014610722578063f61c899a1461074f575b600080fd5b3480156100c057600080fd5b506100e9600480360381019080803590602001909291908035906020019092919050505061077c565b005b3480156100f757600080fd5b506101166004803603810190808035906020019092919050505061088f565b005b34801561012457600080fd5b5061012d610987565b005b34801561013b57600080fd5b5061015a60048036038101908080359060200190929190505050610a18565b604051808a81526020018981526020018881526020018060200187815260200186600781111561018657fe5b60ff1681526020018573ffffffffffffffffffffffffffffffffffffffff1673ffffffffffffffffffffffffffffffffffffffff1681526020018473ffffffffffffffffffffffffffffffffffffffff1673ffffffffffffffffffffffffffffffffffffffff1681526020018373ffffffffffffffffffffffffffffffffffffffff1673ffffffffffffffffffffffffffffffffffffffff168152602001828103825288818151815260200191508051906020019080838360005b8381101561025c578082015181840152602081019050610241565b50505050905090810190601f1680156102895780820380516001836020036101000a031916815260200191505b509a505050505050505050505060405180910390f35b3480156102ab57600080fd5b506102ca60048036038101908080359060200190929190505050610baa565b604051808981526020018881526020018773ffffffffffffffffffffffffffffffffffffffff1673ffffffffffffffffffffffffffffffffffffffff1681526020018673ffffffffffffffffffffffffffffffffffffffff1673ffffffffffffffffffffffffffffffffffffffff16815260200180602001806020018060200180602001858103855289818151815260200191508051906020019080838360005b8381101561038657808201518184015260208101905061036b565b50505050905090810190601f1680156103b35780820380516001836020036101000a031916815260200191505b50858103845288818151815260200191508051906020019080838360005b838110156103ec5780820151818401526020810190506103d1565b50505050905090810190601f1680156104195780820380516001836020036101000a031916815260200191505b50858103835287818151815260200191508051906020019080838360005b83811015610452578082015181840152602081019050610437565b50505050905090810190601f16801561047f5780820380516001836020036101000a031916815260200191505b50858103825286818151815260200191508051906020019080838360005b838110156104b857808201518184015260208101905061049d565b50505050905090810190601f1680156104e55780820380516001836020036101000a031916815260200191505b509c5050505050505050505050505060405180910390f35b34801561050957600080fd5b5061052860048036038101908080359060200190929190505050610ec9565b005b34801561053657600080fd5b506105556004803603810190808035906020019092919050505061102f565b005b61057560048036038101908080359060200190929190505050611195565b005b34801561058357600080fd5b5061072060048036038101908080359060200190929190803573ffffffffffffffffffffffffffffffffffffffff169060200190929190803590602001908201803590602001908080601f0160208091040260200160405190810160405280939291908181526020018383808284378201915050505050509192919290803590602001908201803590602001908080601f0160208091040260200160405190810160405280939291908181526020018383808284378201915050505050509192919290803590602001908201803590602001908080601f0160208091040260200160405190810160405280939291908181526020018383808284378201915050505050509192919290803590602001908201803590602001908080601f0160208091040260200160405190810160405280939291908181526020018383808284378201915050505050509192919290803590602001908201803590602001908080601f0160208091040260200160405190810160405280939291908181526020018383808284378201915050505050509192919290505050611457565b005b34801561072e57600080fd5b5061074d600480360381019080803590602001909291905050506117ee565b005b34801561075b57600080fd5b5061077a600480360381019080803590602001909291905050506118e6565b005b816002600781111561078a57fe5b60036000838152602001908152602001600020600b0160009054906101000a900460ff1660078111156107b957fe5b1415156107c557600080fd5b338073ffffffffffffffffffffffffffffffffffffffff163373ffffffffffffffffffffffffffffffffffffffff1614151561080057600080fd5b6003806000868152602001908152602001600020600b0160006101000a81548160ff0219169083600781111561083257fe5b02179055508260036000868152602001908152602001600020600a01819055507fa96ae0fc3224ebd79eebfe54bd130cc9cb94416cddd1f2386115e00b72532468846040518082815260200191505060405180910390a150505050565b806000600781111561089d57fe5b60036000838152602001908152602001600020600b0160009054906101000a900460ff1660078111156108cc57fe5b1415156108d857600080fd5b338073ffffffffffffffffffffffffffffffffffffffff163373ffffffffffffffffffffffffffffffffffffffff1614151561091357600080fd5b600160036000858152602001908152602001600020600b0160006101000a81548160ff0219169083600781111561094657fe5b02179055507f8e55ccfc9778ff8eba1646d765cf1982537ce0f9257054a17b48aad745250183836040518082815260200191505060405180910390a1505050565b6000809054906101000a900473ffffffffffffffffffffffffffffffffffffffff1673ffffffffffffffffffffffffffffffffffffffff163373ffffffffffffffffffffffffffffffffffffffff161415610a16576000809054906101000a900473ffffffffffffffffffffffffffffffffffffffff1673ffffffffffffffffffffffffffffffffffffffff16ff5b565b60008060006060600080600080600080600360008c81526020019081526020016000209050806000015499508060010154985080600801549750806009018054600181600116156101000203166002900480601f016020809104026020016040519081016040528092919081815260200182805460018160011615610100020316600290048015610aea5780601f10610abf57610100808354040283529160200191610aea565b820191906000526020600020905b815481529060010190602001808311610acd57829003601f168201915b5050505050965080600a0154955080600b0160009054906101000a900460ff16945080600b0160019054906101000a900473ffffffffffffffffffffffffffffffffffffffff16935080600c0160009054906101000a900473ffffffffffffffffffffffffffffffffffffffff16925080600d0160009054906101000a900473ffffffffffffffffffffffffffffffffffffffff169150898989898989898989995099509950995099509950995099509950509193959799909294969850565b6000806000806060806060806000600360008b8152602001908152602001600020905080600001549850806001015497508060020160009054906101000a900473ffffffffffffffffffffffffffffffffffffffff1696508060030160009054906101000a900473ffffffffffffffffffffffffffffffffffffffff169550806004018054600181600116156101000203166002900480601f016020809104026020016040519081016040528092919081815260200182805460018160011615610100020316600290048015610cc15780601f10610c9657610100808354040283529160200191610cc1565b820191906000526020600020905b815481529060010190602001808311610ca457829003601f168201915b50505050509450806005018054600181600116156101000203166002900480601f016020809104026020016040519081016040528092919081815260200182805460018160011615610100020316600290048015610d605780601f10610d3557610100808354040283529160200191610d60565b820191906000526020600020905b815481529060010190602001808311610d4357829003601f168201915b50505050509350806006018054600181600116156101000203166002900480601f016020809104026020016040519081016040528092919081815260200182805460018160011615610100020316600290048015610dff5780601f10610dd457610100808354040283529160200191610dff565b820191906000526020600020905b815481529060010190602001808311610de257829003601f168201915b50505050509250806007018054600181600116156101000203166002900480601f016020809104026020016040519081016040528092919081815260200182805460018160011615610100020316600290048015610e9e5780601f10610e7357610100808354040283529160200191610e9e565b820191906000526020600020905b815481529060010190602001808311610e8157829003601f168201915b5050505050915088888888888888889850985098509850985098509850985050919395975091939597565b8060056007811115610ed757fe5b60036000838152602001908152602001600020600b0160009054906101000a900460ff166007811115610f0657fe5b141515610f1257600080fd5b336003600084815260200190815260200160002060020160006101000a81548173ffffffffffffffffffffffffffffffffffffffff021916908373ffffffffffffffffffffffffffffffffffffffff1602179055503360036000848152602001908152602001600020600c0160006101000a81548173ffffffffffffffffffffffffffffffffffffffff021916908373ffffffffffffffffffffffffffffffffffffffff160217905550600660036000848152602001908152602001600020600b0160006101000a81548160ff02191690836007811115610fef57fe5b02179055507fa8142743f8f70a4c26f3691cf4ed59718381fb2f18070ec52be1f1022d855557826040518082815260200191505060405180910390a15050565b806006600781111561103d57fe5b60036000838152602001908152602001600020600b0160009054906101000a900460ff16600781111561106c57fe5b14151561107857600080fd5b336003600084815260200190815260200160002060020160006101000a81548173ffffffffffffffffffffffffffffffffffffffff021916908373ffffffffffffffffffffffffffffffffffffffff1602179055503360036000848152602001908152602001600020600d0160006101000a81548173ffffffffffffffffffffffffffffffffffffffff021916908373ffffffffffffffffffffffffffffffffffffffff160217905550600760036000848152602001908152602001600020600b0160006101000a81548160ff0219169083600781111561115557fe5b02179055507f653d56639fee6b566a5c804764e9689de38645f0b733df89a36a1b7b42173dd8826040518082815260200191505060405180910390a15050565b80600360078111156111a357fe5b60036000838152602001908152602001600020600b0160009054906101000a900460ff1660078111156111d257fe5b1415156111de57600080fd5b60036000838152602001908152602001600020600a015480341015151561120457600080fd5b8260008060036000848152602001908152602001600020600a01549150813403905060036000848152602001908152602001600020600d0160009054906101000a900473ffffffffffffffffffffffffffffffffffffffff1673ffffffffffffffffffffffffffffffffffffffff166108fc829081150290604051600060405180830381858888f193505050501580156112a2573d6000803e3d6000fd5b50336003600088815260200190815260200160002060020160006101000a81548173ffffffffffffffffffffffffffffffffffffffff021916908373ffffffffffffffffffffffffffffffffffffffff1602179055503360036000888152602001908152602001600020600b0160016101000a81548173ffffffffffffffffffffffffffffffffffffffff021916908373ffffffffffffffffffffffffffffffffffffffff160217905550600460036000888152602001908152602001600020600b0160006101000a81548160ff0219169083600781111561138057fe5b02179055506003600087815260200190815260200160002060030160009054906101000a900473ffffffffffffffffffffffffffffffffffffffff1673ffffffffffffffffffffffffffffffffffffffff166108fc60036000898152602001908152602001600020600a01549081150290604051600060405180830381858888f19350505050158015611417573d6000803e3d6000fd5b507f92f64ca637d023f354075a4be751b169c1a8a9ccb6d33cdd0cb3520543995727866040518082815260200191505060405180910390a1505050505050565b6101e06040519081016040528060025481526020018881526020018773ffffffffffffffffffffffffffffffffffffffff1681526020018773ffffffffffffffffffffffffffffffffffffffff1681526020018681526020018581526020018481526020018381526020016002548901815260200182815260200160008152602001600060078111156114e657fe5b8152602001600073ffffffffffffffffffffffffffffffffffffffff168152602001600073ffffffffffffffffffffffffffffffffffffffff168152602001600073ffffffffffffffffffffffffffffffffffffffff1681525060036000898152602001908152602001600020600082015181600001556020820151816001015560408201518160020160006101000a81548173ffffffffffffffffffffffffffffffffffffffff021916908373ffffffffffffffffffffffffffffffffffffffff16021790555060608201518160030160006101000a81548173ffffffffffffffffffffffffffffffffffffffff021916908373ffffffffffffffffffffffffffffffffffffffff16021790555060808201518160040190805190602001906116119291906119de565b5060a082015181600501908051906020019061162e9291906119de565b5060c082015181600601908051906020019061164b9291906119de565b5060e08201518160070190805190602001906116689291906119de565b5061010082015181600801556101208201518160090190805190602001906116919291906119de565b5061014082015181600a015561016082015181600b0160006101000a81548160ff021916908360078111156116c257fe5b021790555061018082015181600b0160016101000a81548173ffffffffffffffffffffffffffffffffffffffff021916908373ffffffffffffffffffffffffffffffffffffffff1602179055506101a082015181600c0160006101000a81548173ffffffffffffffffffffffffffffffffffffffff021916908373ffffffffffffffffffffffffffffffffffffffff1602179055506101c082015181600d0160006101000a81548173ffffffffffffffffffffffffffffffffffffffff021916908373ffffffffffffffffffffffffffffffffffffffff1602179055509050506001600254016002819055507f1c3398af928f961cf9c1f49d3892d391f45dde3731266f32690ec2a94c3d3d50876040518082815260200191505060405180910390a150505050505050565b80600160078111156117fc57fe5b60036000838152602001908152602001600020600b0160009054906101000a900460ff16600781111561182b57fe5b14151561183757600080fd5b338073ffffffffffffffffffffffffffffffffffffffff163373ffffffffffffffffffffffffffffffffffffffff1614151561187257600080fd5b600260036000858152602001908152602001600020600b0160006101000a81548160ff021916908360078111156118a557fe5b02179055507f9b3b66e2380b690bae22c73ef1428fb0c91e72fe14a4b6defa13035214187aff836040518082815260200191505060405180910390a1505050565b80600460078111156118f457fe5b60036000838152602001908152602001600020600b0160009054906101000a900460ff16600781111561192357fe5b14151561192f57600080fd5b338073ffffffffffffffffffffffffffffffffffffffff163373ffffffffffffffffffffffffffffffffffffffff1614151561196a57600080fd5b600560036000858152602001908152602001600020600b0160006101000a81548160ff0219169083600781111561199d57fe5b02179055507ff00b9a5725b80c54016f42114f6ed7792d22eecb116011c4afac29c57bef6c95836040518082815260200191505060405180910390a1505050565b828054600181600116156101000203166002900490600052602060002090601f016020900481019282601f10611a1f57805160ff1916838001178555611a4d565b82800160010185558215611a4d579182015b82811115611a4c578251825591602001919060010190611a31565b5b509050611a5a9190611a5e565b5090565b611a8091905b80821115611a7c576000816000905550600101611a64565b5090565b905600a165627a7a723058202e9c7c1bd7325b5c2ca14b04d6744a258d05085ee8ce65b65a7dde39c6f910410029",
  "source": "pragma solidity ^0.4.24;\n\n  import \"../coffeeaccesscontrol/FarmerRole.sol\";\n  import \"../coffeeaccesscontrol/DistributorRole.sol\";\n  import \"../coffeeaccesscontrol/RetailerRole.sol\";\n  import \"../coffeeaccesscontrol/ConsumerRole.sol\";\n  import \"../coffeecore/Ownable.sol\";\n\n  contract SupplyChain {\n\n  // Define 'owner'\n  address owner;\n\n  // Define a variable called 'upc' for Universal Product Code (UPC)\n  uint  upc;\n\n  // Define a variable called 'sku' for Stock Keeping Unit (SKU)\n  uint  sku;\n\n  // Define a public mapping 'items' that maps the UPC to an Item.\n  mapping (uint => Item) items;\n\n  // Define a public mapping 'itemsHistory' that maps the UPC to an array of TxHash,\n  // that track its journey through the supply chain -- to be sent from DApp.\n  mapping (uint => string[]) itemsHistory;\n\n  // Define enum 'State' with the following values:\n  enum State\n  {\n    Planted,  // 0\n    Harvested,  // 1\n    Packed,     // 2\n    ForSale,    // 3\n    Sold,       // 4\n    Shipped,    // 5\n    Received,   // 6\n    Purchased   // 7\n    }\n\n  State constant defaultState = State.Planted;\n\n  // Define a struct 'Item' with the following fields:\n    struct Item {\n    uint    sku;  // Stock Keeping Unit (SKU)\n    uint    upc; // Universal Product Code (UPC), generated by the Farmer, goes on the package, can be verified by the Consumer\n    address ownerID;  // Metamask-Ethereum address of the current owner as the product moves through 8 stages\n    address originFarmerID; // Metamask-Ethereum address of the Farmer\n    string  originFarmName; // Farmer Name\n    string  originFarmInformation;  // Farmer Information\n    string  originFarmLatitude; // Farm Latitude\n    string  originFarmLongitude;  // Farm Longitude\n    uint    productID;  // Product ID potentially a combination of upc + sku\n    string  productNotes; // Product Notes\n    uint    productPrice; // Product Price\n    State   itemState;  // Product State as represented in the enum above\n    address distributorID;  // Metamask-Ethereum address of the Retailer\n    address retailerID; // Metamask-Ethereum address of the Retailer\n    address consumerID; // Metamask-Ethereum address of the Consumer\n  }\n\n  // Define 8 events with the same 8 state values and accept 'upc' as input argument\n  event Planted(uint upc);\n  event Harvested(uint upc);\n  event Packed(uint upc);\n  event ForSale(uint upc);\n  event Sold(uint upc);\n  event Shipped(uint upc);\n  event Received(uint upc);\n  event Purchased(uint upc);\n\n  // Define a modifer that checks to see if msg.sender == owner of the contract\n  modifier onlyOwner() {\n  require(msg.sender == owner);\n  _;\n}\n\n  // Define a modifer that verifies the Caller\n  modifier verifyCaller (address _address) {\n    require(msg.sender == _address);\n    _;\n  }\n\n  // Define a modifier that checks if the paid amount is sufficient to cover the price\n  modifier paidEnough(uint _price) {\n    //emit Debug(msg.sender, msg.value, _price);\n    require(msg.value >= _price);\n    _;\n  }\n\n  // Define a modifier that checks the price and refunds the remaining balance\n  modifier checkValue(uint _upc) {\n    uint _price = items[_upc].productPrice;\n    uint amountToReturn = msg.value - _price;\n    items[_upc].consumerID.transfer(amountToReturn);\n    _;\n  }\n\n  // Define a modifier that checks if an item.state of a upc is Planted\n  modifier planted(uint _upc) {\n    require(items[_upc].itemState == State.Planted);\n    _;\n  }\n\n  // Define a modifier that checks if an item.state of a upc is ForSale\n  modifier forSale(uint _upc) {\n    require(items[_upc].itemState == State.ForSale);\n    _;\n  }\n\n  // Define a modifier that checks if an item.state of a upc is Sold\n  modifier sold(uint _upc) {\n    require(items[_upc].itemState == State.Sold);\n    _;\n  }\n\n  // Define a modifier that checks if an item.state of a upc is Harvested\n  modifier harvested(uint _upc) {\n    require(items[_upc].itemState == State.Harvested);\n    _;\n  }\n\n  // Define a modifier that checks if an item.state of a upc is Packed\n  modifier packed(uint _upc) {\n    require(items[_upc].itemState == State.Packed);\n    _;\n  }\n\n  // Define a modifier that checks if an item.state of a upc is Shipped\n  modifier shipped(uint _upc) {\n    require(items[_upc].itemState == State.Shipped);\n    _;\n  }\n\n  // Define a modifier that checks if an item.state of a upc is Received\n  modifier received(uint _upc) {\n    require(items[_upc].itemState == State.Received);\n    _;\n  }\n\n  // Define a modifier that checks if an item.state of a upc is Purchased\n  modifier purchased(uint _upc) {\n    require(items[_upc].itemState == State.Purchased);\n    _;\n  }\n\n  // In the constructor set 'owner' to the address that instantiated the contract\n  // and set 'sku' to 1\n  // and set 'upc' to 1\n  constructor() public payable {\n    owner = msg.sender;\n    sku = 1;\n    upc = 1;\n  }\n\n  // Define a function 'kill' if required\n  function kill() public {\n    if (msg.sender == owner) {\n      selfdestruct(owner);\n    }\n  }\n\n  // Define a function 'harvestItem' that allows a farmer to mark an item 'Planted'\n  function plantItem(uint _upc, address _originFarmerID, string _originFarmName, string _originFarmInformation, string  _originFarmLatitude, string  _originFarmLongitude, string  _productNotes) public\n  {\n    // Add the new item as part of Harvest\n    items[_upc] = Item({\n        sku: sku,\n        upc: _upc,\n        ownerID: _originFarmerID,\n        originFarmerID: _originFarmerID,\n        originFarmName: _originFarmName,\n        originFarmInformation: _originFarmInformation,\n        originFarmLatitude: _originFarmLatitude,\n        originFarmLongitude: _originFarmLongitude,\n        productID: _upc + sku,\n        productNotes: _productNotes,\n        productPrice: 0,\n        itemState: defaultState,\n        distributorID: address(0),\n        retailerID: address(0),\n        consumerID: address(0)\n    });\n\n    // Increment sku\n    sku = sku + 1;\n\n    // Emit the appropriate event\n    emit Planted(_upc);\n\n  }\n  // Define a function 'processItem' that allows a retailer to mark an item 'Harvested'\n  function harvestItem(uint _upc) planted(_upc) verifyCaller(msg.sender) public\n  // Call modifier to check if upc has passed previous supply chain stage\n\n  // Call modifier to verify caller of this function\n\n  {\n    // Update the appropriate fields\n    items[_upc].itemState = State.Harvested;\n\n    // Emit the appropriate event\n    emit Harvested(_upc);\n\n  }\n\n\n  // Define a function 'packItem' that allows a farmer to mark an item 'Packed'\n  function packItem(uint _upc) harvested(_upc) verifyCaller(msg.sender) public\n  // Call modifier to check if upc has passed previous supply chain stage\n\n  // Call modifier to verify caller of this function\n\n  {\n    // Update the appropriate fields\n    items[_upc].itemState = State.Packed;\n\n    // Emit the appropriate event\n    emit Packed(_upc);\n\n  }\n  // Define a function 'sellItem' that allows a farmer to mark an item 'ForSale'\n  function sellItem(uint _upc, uint _price) packed(_upc) verifyCaller(msg.sender) public\n  // Call modifier to check if upc has passed previous supply chain stage\n\n  // Call modifier to verify caller of this function\n\n  {\n    // Update the appropriate fields\n    items[_upc].itemState = State.ForSale;\n    items[_upc].productPrice = _price;\n\n    // Emit the appropriate event\n    emit ForSale(_upc);\n\n  }\n\n  // Define a function 'buyItem' that allows the distributor to mark an item 'Sold'\n  // Use the above defined modifiers to check if the item is available for sale, if the buyer has paid enough,\n  // and any excess ether sent is refunded back to the buyer\n  function buyItem(uint _upc) forSale(_upc) paidEnough(items[_upc].productPrice) checkValue(_upc) public payable\n    // Call modifier to check if upc has passed previous supply chain stage\n\n    // Call modifer to check if buyer has paid enough\n\n    // Call modifer to send any excess ether back to buyer\n\n  {\n    // Update the appropriate fields - ownerID,  itemState\n    items[_upc].ownerID = msg.sender;\n    items[_upc].distributorID= msg.sender;\n    items[_upc].itemState = State.Sold;\n\n    // Transfer money to farmer\n    items[_upc].originFarmerID.transfer(items[_upc].productPrice);\n\n    // emit the appropriate event\n    emit Sold(_upc);\n  }\n\n  // Define a function 'shipItem' that allows the distributor to mark an item 'Shipped'\n  // Use the above modifers to check if the item is sold\n  function shipItem(uint _upc) sold(_upc) verifyCaller(msg.sender) public\n    // Call modifier to check if upc has passed previous supply chain stage\n\n    // Call modifier to verify caller of this function\n\n  {\n    // Update the appropriate fields\n    items[_upc].itemState = State.Shipped;\n\n    // Emit the appropriate event\n    emit Shipped(_upc);\n\n  }\n\n  // Define a function 'receiveItem' that allows the retailer to mark an item 'Received'\n  // Use the above modifiers to check if the item is shipped\n  function receiveItem(uint _upc) shipped(_upc) public\n    // Call modifier to check if upc has passed previous supply chain stage\n\n    // Access Control List enforced by calling Smart Contract / DApp\n  {\n    // Update the appropriate fields - ownerID, retailerID, itemState\n    items[_upc].ownerID = msg.sender;\n    items[_upc].retailerID= msg.sender;\n    items[_upc].itemState = State.Received;\n\n    // Emit the appropriate event\n    emit Received(_upc);\n\n  }\n\n  // Define a function 'purchaseItem' that allows the consumer to mark an item 'Purchased'\n  // Use the above modifiers to check if the item is received\n  function purchaseItem(uint _upc) received(_upc) public\n    // Call modifier to check if upc has passed previous supply chain stage\n\n    // Access Control List enforced by calling Smart Contract / DApp\n  {\n    // Update the appropriate fields - ownerID, consumerID, itemState\n    items[_upc].ownerID = msg.sender;\n    items[_upc].consumerID = msg.sender;\n    items[_upc].itemState = State.Purchased;\n\n    // Emit the appropriate event\n    emit Purchased(_upc);\n\n  }\n\n  // Define a function 'fetchItemBufferOne' that fetches the data\n    function fetchItemBufferOne(uint _upc) public view returns\n    (\n    uint    itemSKU,\n    uint    itemUPC,\n    address ownerID,\n    address originFarmerID,\n    string  originFarmName,\n    string  originFarmInformation,\n    string  originFarmLatitude,\n    string  originFarmLongitude\n    )\n    {\n    // Assign values to the 8 parameters\n    Item storage _item = items[_upc];\n\n    itemSKU = _item.sku;\n    itemUPC = _item.upc;\n    ownerID = _item.ownerID;\n    originFarmerID = _item.originFarmerID;\n    originFarmName = _item.originFarmName;\n    originFarmInformation = _item.originFarmInformation;\n    originFarmLatitude = _item.originFarmLatitude;\n    originFarmLongitude = _item.originFarmLongitude;\n\n    return\n    (\n    itemSKU,\n    itemUPC,\n    ownerID,\n    originFarmerID,\n    originFarmName,\n    originFarmInformation,\n    originFarmLatitude,\n    originFarmLongitude\n    );\n    }\n\n    // Define a function 'fetchItemBufferTwo' that fetches the data\n    function fetchItemBufferTwo(uint _upc) public view returns\n    (\n    uint    itemSKU,\n    uint    itemUPC,\n    uint    productID,\n    string  productNotes,\n    uint    productPrice,\n    State   itemState,\n    address distributorID,\n    address retailerID,\n    address consumerID\n    )\n    {\n    // Assign values to the 9 parameters\n    Item storage _item = items[_upc];\n\n    itemSKU = _item.sku;\n    itemUPC = _item.upc;\n    productID = _item.productID;\n    productNotes = _item.productNotes;\n    productPrice = _item.productPrice;\n    itemState = _item.itemState;\n    distributorID= _item.distributorID;\n    retailerID= _item.retailerID;\n    consumerID = _item.consumerID;\n\n    return\n    (\n    itemSKU,\n    itemUPC,\n    productID,\n    productNotes,\n    productPrice,\n    itemState,\n    distributorID,\n    retailerID,\n    consumerID\n    );\n    }\n    }\n",
  "sourcePath": "/Users/admin/github/udacity-blockchain-developer-nanodegree/Project_6B/contracts/coffeebase/SupplyChain.sol",
  "compiler": {
    "name": "solc",
    "version": "0.4.25+commit.59dbf8f1.Emscripten.clang"
  },
  "schemaVersion": "2.0.2",
  "updatedAt": "2019-04-17T10:45:43.975Z"
}